{
  "_format": "hh-sol-artifact-1",
  "contractName": "SportsFantasy",
  "sourceName": "contracts/SportsFantasy.sol",
  "abi": [
    {
      "anonymous": false,
      "inputs": [
        {
          "indexed": false,
          "internalType": "address",
          "name": "backer",
          "type": "address"
        },
        {
          "indexed": false,
          "internalType": "uint256",
          "name": "amount",
          "type": "uint256"
        },
        {
          "indexed": false,
          "internalType": "bool",
          "name": "isContribution",
          "type": "bool"
        }
      ],
      "name": "FundTransfer",
      "type": "event"
    },
    {
      "anonymous": false,
      "inputs": [
        {
          "indexed": false,
          "internalType": "address",
          "name": "userAddress",
          "type": "address"
        },
        {
          "indexed": false,
          "internalType": "address payable",
          "name": "relayerAddress",
          "type": "address"
        },
        {
          "indexed": false,
          "internalType": "bytes",
          "name": "functionSignature",
          "type": "bytes"
        }
      ],
      "name": "MetaTransactionExecuted",
      "type": "event"
    },
    {
      "anonymous": false,
      "inputs": [
        {
          "indexed": false,
          "internalType": "address",
          "name": "backer",
          "type": "address"
        },
        {
          "indexed": false,
          "internalType": "uint256",
          "name": "qid",
          "type": "uint256"
        },
        {
          "indexed": false,
          "internalType": "uint256",
          "name": "_type",
          "type": "uint256"
        }
      ],
      "name": "QuestionCreation",
      "type": "event"
    },
    {
      "anonymous": false,
      "inputs": [
        {
          "indexed": false,
          "internalType": "address[]",
          "name": "Admins",
          "type": "address[]"
        }
      ],
      "name": "SetAdmins",
      "type": "event"
    },
    {
      "anonymous": false,
      "inputs": [
        {
          "indexed": false,
          "internalType": "address",
          "name": "backer",
          "type": "address"
        },
        {
          "indexed": false,
          "internalType": "uint256",
          "name": "qid",
          "type": "uint256"
        },
        {
          "indexed": false,
          "internalType": "uint256",
          "name": "ansid",
          "type": "uint256"
        }
      ],
      "name": "VotingDone",
      "type": "event"
    },
    {
      "anonymous": false,
      "inputs": [
        {
          "indexed": false,
          "internalType": "uint256",
          "name": "qid",
          "type": "uint256"
        },
        {
          "indexed": false,
          "internalType": "string",
          "name": "name",
          "type": "string"
        },
        {
          "indexed": false,
          "internalType": "address",
          "name": "winner",
          "type": "address"
        },
        {
          "indexed": false,
          "internalType": "uint256",
          "name": "rewardamt",
          "type": "uint256"
        },
        {
          "indexed": false,
          "internalType": "uint256",
          "name": "ans",
          "type": "uint256"
        },
        {
          "indexed": false,
          "internalType": "uint256",
          "name": "_type",
          "type": "uint256"
        }
      ],
      "name": "WinnerDeclared",
      "type": "event"
    },
    {
      "inputs": [
        {
          "internalType": "address",
          "name": "",
          "type": "address"
        }
      ],
      "name": "AdminByAddress",
      "outputs": [
        {
          "internalType": "bool",
          "name": "",
          "type": "bool"
        }
      ],
      "stateMutability": "view",
      "type": "function"
    },
    {
      "inputs": [
        {
          "internalType": "uint256",
          "name": "",
          "type": "uint256"
        }
      ],
      "name": "Admins",
      "outputs": [
        {
          "internalType": "address",
          "name": "",
          "type": "address"
        }
      ],
      "stateMutability": "view",
      "type": "function"
    },
    {
      "inputs": [
        {
          "internalType": "address",
          "name": "",
          "type": "address"
        }
      ],
      "name": "balanceOf",
      "outputs": [
        {
          "internalType": "uint256",
          "name": "",
          "type": "uint256"
        }
      ],
      "stateMutability": "view",
      "type": "function"
    },
    {
      "inputs": [
        {
          "internalType": "address",
          "name": "userAddress",
          "type": "address"
        },
        {
          "internalType": "bytes",
          "name": "functionSignature",
          "type": "bytes"
        },
        {
          "internalType": "bytes32",
          "name": "sigR",
          "type": "bytes32"
        },
        {
          "internalType": "bytes32",
          "name": "sigS",
          "type": "bytes32"
        },
        {
          "internalType": "uint8",
          "name": "sigV",
          "type": "uint8"
        }
      ],
      "name": "executeMetaTransaction",
      "outputs": [
        {
          "internalType": "bytes",
          "name": "",
          "type": "bytes"
        }
      ],
      "stateMutability": "payable",
      "type": "function"
    },
    {
      "inputs": [],
      "name": "feeAddress",
      "outputs": [
        {
          "internalType": "address",
          "name": "",
          "type": "address"
        }
      ],
      "stateMutability": "view",
      "type": "function"
    },
    {
      "inputs": [],
      "name": "getAdmins",
      "outputs": [
        {
          "internalType": "address[]",
          "name": "",
          "type": "address[]"
        }
      ],
      "stateMutability": "view",
      "type": "function"
    },
    {
      "inputs": [
        {
          "internalType": "address",
          "name": "from",
          "type": "address"
        }
      ],
      "name": "getBalance",
      "outputs": [
        {
          "internalType": "uint256",
          "name": "",
          "type": "uint256"
        }
      ],
      "stateMutability": "view",
      "type": "function"
    },
    {
      "inputs": [
        {
          "internalType": "address",
          "name": "user",
          "type": "address"
        }
      ],
      "name": "getNonce",
      "outputs": [
        {
          "internalType": "uint256",
          "name": "nonce",
          "type": "uint256"
        }
      ],
      "stateMutability": "view",
      "type": "function"
    },
    {
      "inputs": [
        {
          "internalType": "uint256",
          "name": "_qid",
          "type": "uint256"
        }
      ],
      "name": "getQ",
      "outputs": [
        {
          "components": [
            {
              "internalType": "address",
              "name": "author",
              "type": "address"
            },
            {
              "internalType": "uint256",
              "name": "_type",
              "type": "uint256"
            },
            {
              "internalType": "string",
              "name": "qcontent",
              "type": "string"
            },
            {
              "internalType": "uint256",
              "name": "vote_price",
              "type": "uint256"
            },
            {
              "internalType": "uint256",
              "name": "correct_ans_id",
              "type": "uint256"
            },
            {
              "components": [
                {
                  "internalType": "uint8",
                  "name": "name",
                  "type": "uint8"
                },
                {
                  "internalType": "uint256",
                  "name": "voteCount",
                  "type": "uint256"
                },
                {
                  "internalType": "address[]",
                  "name": "voters",
                  "type": "address[]"
                }
              ],
              "internalType": "struct SportsFantasy.Option[6]",
              "name": "options",
              "type": "tuple[6]"
            },
            {
              "internalType": "uint256",
              "name": "totalCount",
              "type": "uint256"
            },
            {
              "internalType": "address[]",
              "name": "winners",
              "type": "address[]"
            },
            {
              "internalType": "string[]",
              "name": "winnersnames",
              "type": "string[]"
            },
            {
              "internalType": "string",
              "name": "correct_answer_str",
              "type": "string"
            },
            {
              "internalType": "string",
              "name": "correct_ans_reason",
              "type": "string"
            },
            {
              "internalType": "uint256",
              "name": "distributed_each",
              "type": "uint256"
            },
            {
              "internalType": "uint256",
              "name": "totalWinners",
              "type": "uint256"
            },
            {
              "internalType": "bool",
              "name": "status",
              "type": "bool"
            },
            {
              "internalType": "bool",
              "name": "stopped",
              "type": "bool"
            },
            {
              "internalType": "bool",
              "name": "declared_result",
              "type": "bool"
            }
          ],
          "internalType": "struct SportsFantasy.Question",
          "name": "",
          "type": "tuple"
        }
      ],
      "stateMutability": "view",
      "type": "function"
    },
    {
      "inputs": [
        {
          "internalType": "uint256",
          "name": "_qid",
          "type": "uint256"
        }
      ],
      "name": "getQcontent",
      "outputs": [
        {
          "internalType": "string",
          "name": "",
          "type": "string"
        }
      ],
      "stateMutability": "view",
      "type": "function"
    },
    {
      "inputs": [
        {
          "internalType": "uint256",
          "name": "_qid",
          "type": "uint256"
        },
        {
          "internalType": "address",
          "name": "participant",
          "type": "address"
        }
      ],
      "name": "getQidWinning",
      "outputs": [
        {
          "internalType": "uint256",
          "name": "",
          "type": "uint256"
        }
      ],
      "stateMutability": "nonpayable",
      "type": "function"
    },
    {
      "inputs": [
        {
          "internalType": "uint256",
          "name": "_qid",
          "type": "uint256"
        }
      ],
      "name": "getRate",
      "outputs": [
        {
          "internalType": "uint256",
          "name": "",
          "type": "uint256"
        }
      ],
      "stateMutability": "view",
      "type": "function"
    },
    {
      "inputs": [
        {
          "internalType": "uint256",
          "name": "_qid",
          "type": "uint256"
        }
      ],
      "name": "getWinners",
      "outputs": [
        {
          "internalType": "address[]",
          "name": "",
          "type": "address[]"
        }
      ],
      "stateMutability": "view",
      "type": "function"
    },
    {
      "inputs": [
        {
          "internalType": "uint256",
          "name": "_qid",
          "type": "uint256"
        }
      ],
      "name": "getWinnersAnsReason",
      "outputs": [
        {
          "internalType": "string",
          "name": "",
          "type": "string"
        }
      ],
      "stateMutability": "view",
      "type": "function"
    },
    {
      "inputs": [
        {
          "internalType": "uint256",
          "name": "_qid",
          "type": "uint256"
        }
      ],
      "name": "getWinnersAnsStr",
      "outputs": [
        {
          "internalType": "string",
          "name": "",
          "type": "string"
        }
      ],
      "stateMutability": "view",
      "type": "function"
    },
    {
      "inputs": [
        {
          "internalType": "uint256",
          "name": "_qid",
          "type": "uint256"
        }
      ],
      "name": "getWinnersDist",
      "outputs": [
        {
          "internalType": "uint256",
          "name": "",
          "type": "uint256"
        }
      ],
      "stateMutability": "view",
      "type": "function"
    },
    {
      "inputs": [
        {
          "internalType": "uint256",
          "name": "_qid",
          "type": "uint256"
        }
      ],
      "name": "getWinnersno",
      "outputs": [
        {
          "internalType": "uint256",
          "name": "",
          "type": "uint256"
        }
      ],
      "stateMutability": "view",
      "type": "function"
    },
    {
      "inputs": [
        {
          "internalType": "address",
          "name": "from",
          "type": "address"
        }
      ],
      "name": "getWinnningBalance",
      "outputs": [
        {
          "internalType": "uint256",
          "name": "",
          "type": "uint256"
        }
      ],
      "stateMutability": "view",
      "type": "function"
    },
    {
      "inputs": [
        {
          "internalType": "address",
          "name": "owner",
          "type": "address"
        },
        {
          "internalType": "address",
          "name": "erc20Token",
          "type": "address"
        }
      ],
      "name": "initialize",
      "outputs": [],
      "stateMutability": "nonpayable",
      "type": "function"
    },
    {
      "inputs": [],
      "name": "manager",
      "outputs": [
        {
          "internalType": "address",
          "name": "",
          "type": "address"
        }
      ],
      "stateMutability": "view",
      "type": "function"
    },
    {
      "inputs": [
        {
          "internalType": "uint256",
          "name": "_qid",
          "type": "uint256"
        },
        {
          "internalType": "string",
          "name": "_qcontent",
          "type": "string"
        },
        {
          "internalType": "uint256",
          "name": "_vote_price",
          "type": "uint256"
        },
        {
          "internalType": "uint8",
          "name": "_optionslength",
          "type": "uint8"
        },
        {
          "internalType": "uint256",
          "name": "_type",
          "type": "uint256"
        },
        {
          "internalType": "string",
          "name": "name",
          "type": "string"
        }
      ],
      "name": "postQuestion",
      "outputs": [],
      "stateMutability": "nonpayable",
      "type": "function"
    },
    {
      "inputs": [
        {
          "internalType": "address[]",
          "name": "_Admins",
          "type": "address[]"
        }
      ],
      "name": "setAdmins",
      "outputs": [],
      "stateMutability": "nonpayable",
      "type": "function"
    },
    {
      "inputs": [
        {
          "internalType": "uint256",
          "name": "_qid",
          "type": "uint256"
        }
      ],
      "name": "stopVoting",
      "outputs": [],
      "stateMutability": "nonpayable",
      "type": "function"
    },
    {
      "inputs": [
        {
          "internalType": "uint256",
          "name": "_qid",
          "type": "uint256"
        },
        {
          "internalType": "uint256",
          "name": "_ansid",
          "type": "uint256"
        },
        {
          "internalType": "string",
          "name": "_correct_answer_str",
          "type": "string"
        },
        {
          "internalType": "string",
          "name": "_correct_ans_reason",
          "type": "string"
        }
      ],
      "name": "submitRightSolution",
      "outputs": [],
      "stateMutability": "nonpayable",
      "type": "function"
    },
    {
      "inputs": [
        {
          "internalType": "uint256",
          "name": "_qid",
          "type": "uint256"
        },
        {
          "internalType": "uint256",
          "name": "ansid",
          "type": "uint256"
        },
        {
          "internalType": "string",
          "name": "name",
          "type": "string"
        }
      ],
      "name": "vote",
      "outputs": [],
      "stateMutability": "nonpayable",
      "type": "function"
    }
  ],
  "bytecode": "0x608060405234801561001057600080fd5b5061307d806100206000396000f3fe6080604052600436106101665760003560e01c806370a08231116100d1578063accc1d5e1161008a578063d57bb39711610064578063d57bb39714610436578063d9079d4314610456578063dbc4505014610476578063f8b2cb4f1461049657610166565b8063accc1d5e146103d6578063ae316cb0146103f6578063b38599891461041657610166565b806370a08231146102fc5780638a0c2e5a1461031c5780639b758555146103495780639f89a4b214610369578063a1bbfc0514610389578063ac1ef0d1146103a957610166565b80634127535811610123578063412753581461024557806344d0574e14610267578063481c6a7514610287578063485cc9551461029c57806357764094146102bc5780636b1426a4146102dc57610166565b80630c53c51c1461016b5780632d0335ab1461019457806331ae450b146101c157806335c49a95146101e35780633cb2c7fc146102055780633e0f901714610225575b600080fd5b61017e61017936600461240d565b6104b6565b60405161018b91906129b4565b60405180910390f35b3480156101a057600080fd5b506101b46101af3660046123be565b610680565b60405161018b9190612e71565b3480156101cd57600080fd5b506101d661069b565b60405161018b9190612928565b3480156101ef57600080fd5b506102036101fe366004612544565b6106fe565b005b34801561021157600080fd5b50610203610220366004612663565b610792565b34801561023157600080fd5b506101b4610240366004612544565b6109b9565b34801561025157600080fd5b5061025a6109d1565b60405161018b9190612881565b34801561027357600080fd5b5061017e610282366004612544565b6109e0565b34801561029357600080fd5b5061025a610a84565b3480156102a857600080fd5b506102036102b73660046123d9565b610a93565b3480156102c857600080fd5b506101b46102d7366004612544565b610ba0565b3480156102e857600080fd5b506101d66102f7366004612544565b610bb5565b34801561030857600080fd5b506101b46103173660046123be565b610c23565b34801561032857600080fd5b5061033c610337366004612544565b610c35565b60405161018b9190612d1c565b34801561035557600080fd5b506101b461036436600461255c565b61108c565b34801561037557600080fd5b5061025a610384366004612544565b6115d1565b34801561039557600080fd5b506102036103a4366004612615565b6115f8565b3480156103b557600080fd5b506103c96103c43660046123be565b611887565b60405161018b919061293b565b3480156103e257600080fd5b506102036103f1366004612487565b61189c565b34801561040257600080fd5b506101b4610411366004612544565b6118cf565b34801561042257600080fd5b5061020361043136600461257f565b6118e4565b34801561044257600080fd5b506101b46104513660046123be565b611ae4565b34801561046257600080fd5b5061017e610471366004612544565b611aff565b34801561048257600080fd5b5061017e610491366004612544565b611b6f565b3480156104a257600080fd5b506101b46104b13660046123be565b611bdc565b606060006104c386611be9565b90506000356001600160e01b031990811690821614156104fe5760405162461bcd60e51b81526004016104f5906129fe565b60405180910390fd5b6105066120a9565b50604080516060810182526001600160a01b038916600081815260026020908152908490205483528201529081018790526105448882888888611c05565b6105605760405162461bcd60e51b81526004016104f590612c26565b6001600160a01b038816600090815260026020526040902054610584906001611cb1565b6001600160a01b0389166000908152600260209081526040808320939093559151909160609130916105ba918c918e910161282f565b60408051601f19818403018152908290526105d491612813565b6000604051808303816000865af19150503d8060008114610611576040519150601f19603f3d011682016040523d82523d6000602084013e610616565b606091505b5091509150816106385760405162461bcd60e51b81526004016104f5906129c7565b7f5845892132946850460bff5a0083f71031bc5bf9aadcd40f1de79423eac9b10b8a338b60405161066b93929190612895565b60405180910390a19998505050505050505050565b6001600160a01b031660009081526002602052604090205490565b6060600d8054806020026020016040519081016040528092919081815260200182805480156106f357602002820191906000526020600020905b81546001600160a01b031681526001909101906020018083116106d5575b505050505090505b90565b600e600061070a611cdd565b6001600160a01b0316815260208101919091526040016000205460ff16151560011461073557600080fd5b6000818152600a60205260409020601e015460ff610100909104161515600114156107725760405162461bcd60e51b81526004016104f590612cd5565b6000908152600a60205260409020601e01805461ff001916610100179055565b600e600061079e611cdd565b6001600160a01b0316815260208101919091526040016000205460ff1615156001146107c957600080fd5b6000848152600a6020908152604090912060048101859055601e8101805461ff001962ff000019909116620100001716610100179055835161081392601a909201918501906120d3565b506000848152600a60209081526040909120825161083992601b909201918401906120d3565b506000836103e7141561086757506000848152600a602052604090206003810154601c9091018190556109b2565b6000858152600a60205260408120600501856006811061088357fe5b6003020160010154905080600014156108b8576000868152600a602052604090206003810154601c90910181905591506109b0565b6000868152600a6020526040902060029060050186600681106108d757fe5b60030201600201805490501161094b576000868152600a602052604081206017810154601d9091018390559061090d8284611d3a565b6000898152600a602052604090206003015490915061092d908290611d6c565b6000898152600a60205260409020601c0181905593506109b0915050565b6000868152600a602052604081206017810154601d909101839055906109718284611d3a565b6000898152600a6020526040902060030154909150610991908290611d6c565b6000898152600a60205260409020602882048203601c90910155935050505b505b5050505050565b6000818152600a60205260409020601d01545b919050565b6005546001600160a01b031681565b6000818152600a6020908152604091829020601a0180548351601f6002600019610100600186161502019093169290920491820184900484028101840190945280845260609392830182828015610a785780601f10610a4d57610100808354040283529160200191610a78565b820191906000526020600020905b815481529060010190602001808311610a5b57829003601f168201915b50505050509050919050565b600c546001600160a01b031681565b600054610100900460ff1680610aac5750610aac611da6565b80610aba575060005460ff16155b610ad65760405162461bcd60e51b81526004016104f590612b60565b600054610100900460ff16158015610b01576000805460ff1961ff0019909116610100171660011790555b600680546001600160a01b038085166001600160a01b031992831617909255600c8054928616928216929092179091556005805490911673397b73151d8ee4d4b66741e49744ed1bdab95fe9179055604080518082018252600a815269053706f727473446170760b41b602080830191909152825190810190925260008252610b8991611db7565b8015610b9b576000805461ff00191690555b505050565b6000908152600a602052604090206003015490565b6000818152600a6020908152604091829020601801805483518184028101840190945280845260609392830182828015610a7857602002820191906000526020600020905b81546001600160a01b03168152600190910190602001808311610bfa5750505050509050919050565b60096020526000908152604090205481565b610c3d612151565b6000828152600a602090815260409182902082516102008101845281546001600160a01b03168152600180830154828501526002808401805487516101009482161594909402600019011691909104601f81018690048602830186018752808352929593949386019391929091830182828015610cfb5780601f10610cd057610100808354040283529160200191610cfb565b820191906000526020600020905b815481529060010190602001808311610cde57829003601f168201915b50505050508152602001600382015481526020016004820154815260200160058201600680602002604051908101604052809291906000905b82821015610dcf5760408051606081018252600384028601805460ff16825260018101546020808401919091526002820180548551818402810184018752818152949593949386019392830182828015610db757602002820191906000526020600020905b81546001600160a01b03168152600190910190602001808311610d99575b50505050508152505081526020019060010190610d34565b5050505081526020016017820154815260200160188201805480602002602001604051908101604052809291908181526020018280548015610e3a57602002820191906000526020600020905b81546001600160a01b03168152600190910190602001808311610e1c575b5050505050815260200160198201805480602002602001604051908101604052809291908181526020016000905b82821015610f135760008481526020908190208301805460408051601f6002600019610100600187161502019094169390930492830185900485028101850190915281815292830182828015610eff5780601f10610ed457610100808354040283529160200191610eff565b820191906000526020600020905b815481529060010190602001808311610ee257829003601f168201915b505050505081526020019060010190610e68565b50505090825250601a8201805460408051602060026001851615610100026000190190941693909304601f8101849004840282018401909252818152938201939291830182828015610fa65780601f10610f7b57610100808354040283529160200191610fa6565b820191906000526020600020905b815481529060010190602001808311610f8957829003601f168201915b5050509183525050601b8201805460408051602060026001851615610100026000190190941693909304601f810184900484028201840190925281815293820193929183018282801561103a5780601f1061100f5761010080835404028352916020019161103a565b820191906000526020600020905b81548152906001019060200180831161101d57829003601f168201915b5050509183525050601c8201546020820152601d8201546040820152601e9091015460ff8082161515606084015261010082048116151560808401526201000090910416151560a09091015292915050565b6000828152600a60205260408120601e015462010000900460ff1615156001146110c85760405162461bcd60e51b81526004016104f590612c67565b6001600160a01b038216600090815260046020908152604080832086845290915290205460ff161561110c5760405162461bcd60e51b81526004016104f590612bae565b6000838152600a602052604090206004810154601c909101546103e782141561132b5760005b6006811015611325576001600160a01b0385166000908152600360209081526040808320898452825280832084845290915290205460ff1615156001141561131d5760065460405163a9059cbb60e01b81526001600160a01b039091169063a9059cbb906111a690889086906004016128ee565b602060405180830381600087803b1580156111c057600080fd5b505af11580156111d4573d6000803e3d6000fd5b505050506040513d601f19601f820116820180604052508101906111f89190612524565b506000868152600a60209081526040808320601881018054600181810183559186528486200180546001600160a01b038c166001600160a01b031990911681179091558552600b845291842060199091018054808401825590855292909320835461127b94919093019290916002908216156101000260001901909116046121e3565b506001600160a01b0385166000908152600b60205260409081902090517f5bcf5bc217a775f034679cdb974a5180ff85b8db07899fc7b7d87dd3ee15b44d916112cf91899190899087908990600190612e7a565b60405180910390a1506001600160a01b03841660008181526004602090815260408083208984528252808320805460ff19166001179055928252600990522080548201905591506115cb9050565b600101611132565b506115c4565b6000858152600a60205260408120600501836006811061134757fe5b6003020160010154905080600014156115575760005b6006811015611551576001600160a01b03861660009081526003602090815260408083208a8452825280832084845290915290205460ff161515600114156115495760065460405163a9059cbb60e01b81526001600160a01b039091169063a9059cbb906113d190899087906004016128ee565b602060405180830381600087803b1580156113eb57600080fd5b505af11580156113ff573d6000803e3d6000fd5b505050506040513d601f19601f820116820180604052508101906114239190612524565b506000878152600a60209081526040808320601881018054600181810183559186528486200180546001600160a01b038d166001600160a01b031990911681179091558552600b84529184206019909101805480840182559085529290932083546114a694919093019290916002908216156101000260001901909116046121e3565b506001600160a01b0386166000908152600b60205260409081902090517f5bcf5bc217a775f034679cdb974a5180ff85b8db07899fc7b7d87dd3ee15b44d916114fa918a91908a9088908a90600190612e7a565b60405180910390a150506001600160a01b03841660008181526004602090815260408083208984528252808320805460ff19166001179055928252600990522080548201905591506115cb9050565b60010161135d565b506115c2565b6001600160a01b0385166000908152600360209081526040808320898452825280832086845290915290205460ff161515600114156115c25760065460405163a9059cbb60e01b81526001600160a01b039091169063a9059cbb906111a690889086906004016128ee565b505b6000925050505b92915050565b600d81815481106115de57fe5b6000918252602090912001546001600160a01b0316905081565b6000838152600a60205260409020601e015462010000900460ff161515600114156116355760405162461bcd60e51b81526004016104f590612a92565b6000838152600a60205260409020601e015460ff610100909104161515600114156116725760405162461bcd60e51b81526004016104f590612af2565b6000838152600a60205260409020600301546006546001600160a01b03166323b872dd61169d611cdd565b30846040518463ffffffff1660e01b81526004016116bd939291906128ca565b602060405180830381600087803b1580156116d757600080fd5b505af11580156116eb573d6000803e3d6000fd5b505050506040513d601f19601f8201168201806040525081019061170f9190612524565b5081600b600061171d611cdd565b6001600160a01b03166001600160a01b0316815260200190815260200160002090805190602001906117509291906120d3565b506000848152600a60205260409020600501836006811061176d57fe5b6003020160020161177c611cdd565b8154600180820184556000938452602080852090920180546001600160a01b0319166001600160a01b039490941693909317909255868352600a9052604090912060050184600681106117cb57fe5b60030201600101600082825401925050819055506001600360006117ed611cdd565b6001600160a01b031681526020808201929092526040908101600090812088825283528181208782528352818120805460ff191694151594909417909355868352600a9091529020601701805460010190557fcf99bd6933f2b873c45d341be16c938695370243a5d9194cd67da6739f415ebb611868611cdd565b858560405161187993929190612907565b60405180910390a150505050565b600e6020526000908152604090205460ff1681565b600c546001600160a01b03166118b0611cdd565b6001600160a01b0316146118c357600080fd5b6118cc81611e2f565b50565b6000908152600a60205260409020601c015490565b6000868152600a60205260409020601e015460ff1615156001141561191b5760405162461bcd60e51b81526004016104f590612c9e565b80600b6000611928611cdd565b6001600160a01b03166001600160a01b03168152602001908152602001600020908051906020019061195b9291906120d3565b5081600214156119ff5760005b8360ff168160ff1610156119e3576000878152600a60205260409020819060050160ff82166006811061199757fe5b60030201805460ff191660ff9283161790556000888152600a6020526040812090916005909101908316600681106119cb57fe5b60030201600101819055508080600101915050611968565b506000868152600a602052604090206002600190910155611a1d565b8160011415611a1d576000868152600a602052604090206001908101555b611a25611cdd565b6000878152600a6020908152604090912080546001600160a01b0319166001600160a01b03939093169290921782558651611a6692600201918801906120d3565b506000868152600a60205260408120600381018690556017810191909155601e01805462ffff001960ff199091166001171690557f3cd90f954f53736044120525de5a59295f9c18478d1c6e3c0f9e59c23deead31611ac3611cdd565b8784604051611ad493929190612907565b60405180910390a1505050505050565b6001600160a01b031660009081526009602052604090205490565b6000818152600a60209081526040918290206002908101805484516001821615610100026000190190911692909204601f81018490048402830184019094528382526060939192909190830182828015610a785780601f10610a4d57610100808354040283529160200191610a78565b6000818152600a6020908152604091829020601b0180548351601f6002600019610100600186161502019093169290920491820184900484028101840190945280845260609392830182828015610a785780601f10610a4d57610100808354040283529160200191610a78565b6001600160a01b03163190565b6000815160001415611bfd575060006109cc565b506020015190565b6000806001611c1b611c1688611f33565b611f91565b84878760405160008152602001604052604051611c3b9493929190612996565b6020604051602081039080840390855afa158015611c5d573d6000803e3d6000fd5b5050604051601f1901519150506001600160a01b038116611c905760405162461bcd60e51b81526004016104f590612ac7565b866001600160a01b0316816001600160a01b03161491505095945050505050565b600082820183811015611cd65760405162461bcd60e51b81526004016104f590612a5b565b9392505050565b600033301415611d355760606000368080601f0160208091040260200160405190810160405280939291908181526020018383808284376000920191909152505050503601516001600160a01b031691506106fb9050565b503390565b6000808211611d5b5760405162461bcd60e51b81526004016104f590612b29565b818381611d6457fe5b049392505050565b600082611d7b575060006115cb565b82820282848281611d8857fe5b0414611cd65760405162461bcd60e51b81526004016104f590612be5565b6000611db130611fad565b15905090565b600054610100900460ff1680611dd05750611dd0611da6565b80611dde575060005460ff16155b611dfa5760405162461bcd60e51b81526004016104f590612b60565b600054610100900460ff16158015611e25576000805460ff1961ff0019909116610100171660011790555b610b898383611fb3565b60005b600d54811015611e8b576000600e6000600d8481548110611e4f57fe5b6000918252602080832091909101546001600160a01b031683528201929092526040019020805460ff1916911515919091179055600101611e32565b5060005b8151811015611ee4576001600e6000848481518110611eaa57fe5b6020908102919091018101516001600160a01b03168252810191909152604001600020805460ff1916911515919091179055600101611e8f565b508051611ef890600d906020840190612258565b507fc1ec6cf847d0d41c2be18f0fe55bd0e5b3346c5637fafc2814ee15359b68efe281604051611f289190612928565b60405180910390a150565b6000604051806080016040528060438152602001612fb66043913980516020918201208351848301516040808701518051908601209051611f749501612972565b604051602081830303815290604052805190602001209050919050565b6000611f9b61209f565b82604051602001611f74929190612866565b3b151590565b600054610100900460ff1680611fcc5750611fcc611da6565b80611fda575060005460ff16155b611ff65760405162461bcd60e51b81526004016104f590612b60565b600054610100900460ff16158015612021576000805460ff1961ff0019909116610100171660011790555b6040518060800160405280604f8152602001612ff9604f913980519060200120838051906020012083805190602001206120596120a5565b3060405160200161206e959493929190612946565b60408051601f1981840301815291905280516020909101206001558015610b9b576000805461ff0019169055505050565b60015490565b4690565b60405180606001604052806000815260200160006001600160a01b03168152602001606081525090565b828054600181600116156101000203166002900490600052602060002090601f016020900481019282601f1061211457805160ff1916838001178555612141565b82800160010185558215612141579182015b82811115612141578251825591602001919060010190612126565b5061214d9291506122b9565b5090565b60405180610200016040528060006001600160a01b03168152602001600081526020016060815260200160008152602001600081526020016121916122ce565b8152602001600081526020016060815260200160608152602001606081526020016060815260200160008152602001600081526020016000151581526020016000151581526020016000151581525090565b828054600181600116156101000203166002900490600052602060002090601f016020900481019282601f1061221c5780548555612141565b8280016001018555821561214157600052602060002091601f016020900482015b8281111561214157825482559160010191906001019061223d565b8280548282559060005260206000209081019282156122ad579160200282015b828111156122ad57825182546001600160a01b0319166001600160a01b03909116178255602090920191600190910190612278565b5061214d9291506122fb565b5b8082111561214d57600081556001016122ba565b6040518060c001604052806006905b6122e561231a565b8152602001906001900390816122dd5790505090565b5b8082111561214d5780546001600160a01b03191681556001016122fc565b6040518060600160405280600060ff16815260200160008152602001606081525090565b80356001600160a01b03811681146115cb57600080fd5b600082601f830112612365578081fd5b813567ffffffffffffffff81111561237b578182fd5b61238e601f8201601f1916602001612f32565b91508082528360208285010111156123a557600080fd5b8060208401602084013760009082016020015292915050565b6000602082840312156123cf578081fd5b611cd6838361233e565b600080604083850312156123eb578081fd5b6123f5848461233e565b9150612404846020850161233e565b90509250929050565b600080600080600060a08688031215612424578081fd5b61242e878761233e565b9450602086013567ffffffffffffffff811115612449578182fd5b61245588828901612355565b9450506040860135925060608601359150608086013560ff81168114612479578182fd5b809150509295509295909350565b60006020808385031215612499578182fd5b823567ffffffffffffffff8111156124af578283fd5b8301601f810185136124bf578283fd5b80356124d26124cd82612f59565b612f32565b81815283810190838501858402850186018910156124ee578687fd5b8694505b8385101561251857612504898261233e565b8352600194909401939185019185016124f2565b50979650505050505050565b600060208284031215612535578081fd5b81518015158114611cd6578182fd5b600060208284031215612555578081fd5b5035919050565b6000806040838503121561256e578182fd5b82359150612404846020850161233e565b60008060008060008060c08789031215612597578081fd5b86359550602087013567ffffffffffffffff808211156125b5578283fd5b6125c18a838b01612355565b9650604089013595506060890135915060ff821682146125df578283fd5b9093506080880135925060a088013590808211156125fb578283fd5b5061260889828a01612355565b9150509295509295509295565b600080600060608486031215612629578283fd5b8335925060208401359150604084013567ffffffffffffffff81111561264d578182fd5b61265986828701612355565b9150509250925092565b60008060008060808587031215612678578384fd5b8435935060208501359250604085013567ffffffffffffffff8082111561269d578384fd5b6126a988838901612355565b935060608701359150808211156126be578283fd5b506126cb87828801612355565b91505092959194509250565b6001600160a01b03169052565b6000815180845260208085019450808401835b8381101561271c5781516001600160a01b0316875295820195908201906001016126f7565b509495945050505050565b6000815180845260208085018081965082840281019150828601855b8581101561276d57828403895261275b8483516127e7565b98850198935090840190600101612743565b5091979650505050505050565b60008260c0810183835b60068110156127d65783830387528151606060ff82511685526020808301518187015260408084015193508281880152506127c1828701846126e4565b99810199955093909301925050600101612784565b509095945050505050565b15159052565b600081518084526127ff816020860160208601612f85565b601f01601f19169290920160200192915050565b60008251612825818460208701612f85565b9190910192915050565b60008351612841818460208801612f85565b60609390931b6bffffffffffffffffffffffff19169190920190815260140192915050565b61190160f01b81526002810192909252602282015260420190565b6001600160a01b0391909116815260200190565b6001600160a01b038481168252831660208201526060604082018190526000906128c1908301846127e7565b95945050505050565b6001600160a01b039384168152919092166020820152604081019190915260600190565b6001600160a01b03929092168252602082015260400190565b6001600160a01b039390931683526020830191909152604082015260600190565b600060208252611cd660208301846126e4565b901515815260200190565b9485526020850193909352604084019190915260608301526001600160a01b0316608082015260a00190565b93845260208401929092526001600160a01b03166040830152606082015260800190565b93845260ff9290921660208401526040830152606082015260800190565b600060208252611cd660208301846127e7565b6020808252601c908201527f46756e6374696f6e2063616c6c206e6f74207375636365737366756c00000000604082015260600190565b6020808252603d908201527f66756e6374696f6e5369676e61747572652063616e206e6f74206265206f662060408201527f657865637574654d6574615472616e73616374696f6e206d6574686f64000000606082015260800190565b6020808252601b908201527f536166654d6174683a206164646974696f6e206f766572666c6f770000000000604082015260600190565b6020808252818101527f566f74696e672070726f6365737320686173206265656e206465636c61726564604082015260600190565b602080825260119082015270496e76616c6964207369676e617475726560781b604082015260600190565b6020808252601f908201527f566f74696e672070726f6365737320686173206265656e2073746f7070656400604082015260600190565b6020808252601a908201527f536166654d6174683a206469766973696f6e206279207a65726f000000000000604082015260600190565b6020808252602e908201527f496e697469616c697a61626c653a20636f6e747261637420697320616c72656160408201526d191e481a5b9a5d1a585b1a5e995960921b606082015260800190565b60208082526017908201527f52657761726420616c72656164792070726f7669646564000000000000000000604082015260600190565b60208082526021908201527f536166654d6174683a206d756c7469706c69636174696f6e206f766572666c6f6040820152607760f81b606082015260800190565b60208082526021908201527f5369676e657220616e64207369676e617475726520646f206e6f74206d6174636040820152600d60fb1b606082015260800190565b60208082526017908201527f526573756c74206e6f7420796574206465636c61726564000000000000000000604082015260600190565b6020808252601a908201527f5175657374696f6e20696420616c726561647920657869737473000000000000604082015260600190565b60208082526027908201527f566f74696e672070726f6365737320686173206265656e20616c7265616479206040820152661cdd1bdc1c195960ca1b606082015260800190565b600060208252612d306020830184516126d7565b602083015160408301526040830151610200806060850152612d566102208501836127e7565b915060608501516080850152608085015160a085015260a0850151601f19808685030160c0870152612d88848361277a565b935060c087015160e087015260e08701519150610100818786030181880152612db185846126e4565b945080880151925050610120818786030181880152612dd08584612727565b945080880151925050610140818786030181880152612def85846127e7565b945080880151925050610160818786030181880152612e0e85846127e7565b90880151610180888101919091528801516101a08089019190915288015190945091506101c09050612e42818701836127e1565b86015190506101e0612e56868201836127e1565b8601519050612e67858301826127e1565b5090949350505050565b90815260200190565b600060c08201888352602060c081850152828954600180821660008114612ea85760018114612ec757612eff565b60028304607f16865260ff19831660e089015261010088019350612eff565b60028304808752612ed78e612f79565b885b82811015612ef55781548b820160e00152908401908701612ed9565b8a0160e001955050505b505050809350505050612f1560408301876126d7565b8460608301528360808301528260a0830152979650505050505050565b60405181810167ffffffffffffffff81118282101715612f5157600080fd5b604052919050565b600067ffffffffffffffff821115612f6f578081fd5b5060209081020190565b60009081526020902090565b60005b83811015612fa0578181015183820152602001612f88565b83811115612faf576000848401525b5050505056fe4d6574615472616e73616374696f6e2875696e74323536206e6f6e63652c616464726573732066726f6d2c62797465732066756e6374696f6e5369676e617475726529454950373132446f6d61696e28737472696e67206e616d652c737472696e672076657273696f6e2c75696e743235362073616c742c6164647265737320766572696679696e67436f6e747261637429a2646970667358221220244d5a8676f6fa5632f6609adce27d89068fe421e3ce7004a6777e1923da91f064736f6c63430007000033",
  "linkReferences": {},
  "deployedLinkReferences": {}
}